{
  "_format": "hh-sol-artifact-1",
  "contractName": "PMTR",
  "sourceName": "contracts/PMTR.sol",
  "abi": [
    {
      "inputs": [
        {
          "internalType": "string",
          "name": "_initBaseURI",
          "type": "string"
        }
      ],
      "stateMutability": "nonpayable",
      "type": "constructor"
    },
    {
      "inputs": [],
      "name": "ApprovalCallerNotOwnerNorApproved",
      "type": "error"
    },
    {
      "inputs": [],
      "name": "ApprovalQueryForNonexistentToken",
      "type": "error"
    },
    {
      "inputs": [],
      "name": "BalanceQueryForZeroAddress",
      "type": "error"
    },
    {
      "inputs": [],
      "name": "InsufficientFunds",
      "type": "error"
    },
    {
      "inputs": [],
      "name": "MintERC2309QuantityExceedsLimit",
      "type": "error"
    },
    {
      "inputs": [],
      "name": "MintToZeroAddress",
      "type": "error"
    },
    {
      "inputs": [],
      "name": "MintZeroQuantity",
      "type": "error"
    },
    {
      "inputs": [],
      "name": "OwnerQueryForNonexistentToken",
      "type": "error"
    },
    {
      "inputs": [],
      "name": "OwnershipNotInitializedForExtraData",
      "type": "error"
    },
    {
      "inputs": [],
      "name": "TransferCallerNotOwnerNorApproved",
      "type": "error"
    },
    {
      "inputs": [],
      "name": "TransferFromIncorrectOwner",
      "type": "error"
    },
    {
      "inputs": [],
      "name": "TransferToNonERC721ReceiverImplementer",
      "type": "error"
    },
    {
      "inputs": [],
      "name": "TransferToZeroAddress",
      "type": "error"
    },
    {
      "inputs": [],
      "name": "URIQueryForNonexistentToken",
      "type": "error"
    },
    {
      "inputs": [],
      "name": "maxPerWalletExceeded",
      "type": "error"
    },
    {
      "anonymous": false,
      "inputs": [
        {
          "indexed": true,
          "internalType": "address",
          "name": "owner",
          "type": "address"
        },
        {
          "indexed": true,
          "internalType": "address",
          "name": "approved",
          "type": "address"
        },
        {
          "indexed": true,
          "internalType": "uint256",
          "name": "tokenId",
          "type": "uint256"
        }
      ],
      "name": "Approval",
      "type": "event"
    },
    {
      "anonymous": false,
      "inputs": [
        {
          "indexed": true,
          "internalType": "address",
          "name": "owner",
          "type": "address"
        },
        {
          "indexed": true,
          "internalType": "address",
          "name": "operator",
          "type": "address"
        },
        {
          "indexed": false,
          "internalType": "bool",
          "name": "approved",
          "type": "bool"
        }
      ],
      "name": "ApprovalForAll",
      "type": "event"
    },
    {
      "anonymous": false,
      "inputs": [
        {
          "indexed": true,
          "internalType": "uint256",
          "name": "fromTokenId",
          "type": "uint256"
        },
        {
          "indexed": false,
          "internalType": "uint256",
          "name": "toTokenId",
          "type": "uint256"
        },
        {
          "indexed": true,
          "internalType": "address",
          "name": "from",
          "type": "address"
        },
        {
          "indexed": true,
          "internalType": "address",
          "name": "to",
          "type": "address"
        }
      ],
      "name": "ConsecutiveTransfer",
      "type": "event"
    },
    {
      "anonymous": false,
      "inputs": [
        {
          "indexed": true,
          "internalType": "address",
          "name": "previousOwner",
          "type": "address"
        },
        {
          "indexed": true,
          "internalType": "address",
          "name": "newOwner",
          "type": "address"
        }
      ],
      "name": "OwnershipTransferred",
      "type": "event"
    },
    {
      "anonymous": false,
      "inputs": [
        {
          "indexed": true,
          "internalType": "address",
          "name": "from",
          "type": "address"
        },
        {
          "indexed": true,
          "internalType": "address",
          "name": "to",
          "type": "address"
        },
        {
          "indexed": true,
          "internalType": "uint256",
          "name": "tokenId",
          "type": "uint256"
        }
      ],
      "name": "Transfer",
      "type": "event"
    },
    {
      "inputs": [
        {
          "internalType": "uint256",
          "name": "tokens",
          "type": "uint256"
        }
      ],
      "name": "Airdrop",
      "outputs": [],
      "stateMutability": "nonpayable",
      "type": "function"
    },
    {
      "inputs": [],
      "name": "MaxPerWalletAirdrop",
      "outputs": [
        {
          "internalType": "uint256",
          "name": "",
          "type": "uint256"
        }
      ],
      "stateMutability": "view",
      "type": "function"
    },
    {
      "inputs": [],
      "name": "MaxperWallet",
      "outputs": [
        {
          "internalType": "uint256",
          "name": "",
          "type": "uint256"
        }
      ],
      "stateMutability": "view",
      "type": "function"
    },
    {
      "inputs": [],
      "name": "MaxperWalletWL",
      "outputs": [
        {
          "internalType": "uint256",
          "name": "",
          "type": "uint256"
        }
      ],
      "stateMutability": "view",
      "type": "function"
    },
    {
      "inputs": [
        {
          "internalType": "uint256",
          "name": "tokens",
          "type": "uint256"
        },
        {
          "internalType": "bytes32[]",
          "name": "merkleProof",
          "type": "bytes32[]"
        }
      ],
      "name": "WLMint",
      "outputs": [],
      "stateMutability": "payable",
      "type": "function"
    },
    {
      "inputs": [],
      "name": "airdropEnabled",
      "outputs": [
        {
          "internalType": "bool",
          "name": "",
          "type": "bool"
        }
      ],
      "stateMutability": "view",
      "type": "function"
    },
    {
      "inputs": [
        {
          "internalType": "address",
          "name": "to",
          "type": "address"
        },
        {
          "internalType": "uint256",
          "name": "tokenId",
          "type": "uint256"
        }
      ],
      "name": "approve",
      "outputs": [],
      "stateMutability": "payable",
      "type": "function"
    },
    {
      "inputs": [
        {
          "internalType": "address",
          "name": "owner",
          "type": "address"
        }
      ],
      "name": "balanceOf",
      "outputs": [
        {
          "internalType": "uint256",
          "name": "",
          "type": "uint256"
        }
      ],
      "stateMutability": "view",
      "type": "function"
    },
    {
      "inputs": [],
      "name": "baseExtension",
      "outputs": [
        {
          "internalType": "string",
          "name": "",
          "type": "string"
        }
      ],
      "stateMutability": "view",
      "type": "function"
    },
    {
      "inputs": [],
      "name": "baseURI",
      "outputs": [
        {
          "internalType": "string",
          "name": "",
          "type": "string"
        }
      ],
      "stateMutability": "view",
      "type": "function"
    },
    {
      "inputs": [
        {
          "internalType": "bool",
          "name": "_state",
          "type": "bool"
        }
      ],
      "name": "enableAirdrop",
      "outputs": [],
      "stateMutability": "nonpayable",
      "type": "function"
    },
    {
      "inputs": [],
      "name": "firstCost",
      "outputs": [
        {
          "internalType": "uint256",
          "name": "",
          "type": "uint256"
        }
      ],
      "stateMutability": "view",
      "type": "function"
    },
    {
      "inputs": [
        {
          "internalType": "uint256",
          "name": "tokenId",
          "type": "uint256"
        }
      ],
      "name": "getApproved",
      "outputs": [
        {
          "internalType": "address",
          "name": "",
          "type": "address"
        }
      ],
      "stateMutability": "view",
      "type": "function"
    },
    {
      "inputs": [
        {
          "internalType": "uint256",
          "name": "_mintAmount",
          "type": "uint256"
        },
        {
          "internalType": "address",
          "name": "destination",
          "type": "address"
        }
      ],
      "name": "gift",
      "outputs": [],
      "stateMutability": "nonpayable",
      "type": "function"
    },
    {
      "inputs": [
        {
          "internalType": "address",
          "name": "owner",
          "type": "address"
        },
        {
          "internalType": "address",
          "name": "operator",
          "type": "address"
        }
      ],
      "name": "isApprovedForAll",
      "outputs": [
        {
          "internalType": "bool",
          "name": "",
          "type": "bool"
        }
      ],
      "stateMutability": "view",
      "type": "function"
    },
    {
      "inputs": [],
      "name": "maxAirdropSupply",
      "outputs": [
        {
          "internalType": "uint256",
          "name": "",
          "type": "uint256"
        }
      ],
      "stateMutability": "view",
      "type": "function"
    },
    {
      "inputs": [],
      "name": "maxSupply",
      "outputs": [
        {
          "internalType": "uint256",
          "name": "",
          "type": "uint256"
        }
      ],
      "stateMutability": "view",
      "type": "function"
    },
    {
      "inputs": [],
      "name": "maxWlSupply",
      "outputs": [
        {
          "internalType": "uint256",
          "name": "",
          "type": "uint256"
        }
      ],
      "stateMutability": "view",
      "type": "function"
    },
    {
      "inputs": [],
      "name": "merkleRoot",
      "outputs": [
        {
          "internalType": "bytes32",
          "name": "",
          "type": "bytes32"
        }
      ],
      "stateMutability": "view",
      "type": "function"
    },
    {
      "inputs": [],
      "name": "name",
      "outputs": [
        {
          "internalType": "string",
          "name": "",
          "type": "string"
        }
      ],
      "stateMutability": "view",
      "type": "function"
    },
    {
      "inputs": [],
      "name": "notRevealedUri",
      "outputs": [
        {
          "internalType": "string",
          "name": "",
          "type": "string"
        }
      ],
      "stateMutability": "view",
      "type": "function"
    },
    {
      "inputs": [
        {
          "internalType": "address",
          "name": "owner",
          "type": "address"
        }
      ],
      "name": "numberMinted",
      "outputs": [
        {
          "internalType": "uint256",
          "name": "",
          "type": "uint256"
        }
      ],
      "stateMutability": "view",
      "type": "function"
    },
    {
      "inputs": [],
      "name": "owner",
      "outputs": [
        {
          "internalType": "address",
          "name": "",
          "type": "address"
        }
      ],
      "stateMutability": "view",
      "type": "function"
    },
    {
      "inputs": [
        {
          "internalType": "uint256",
          "name": "tokenId",
          "type": "uint256"
        }
      ],
      "name": "ownerOf",
      "outputs": [
        {
          "internalType": "address",
          "name": "",
          "type": "address"
        }
      ],
      "stateMutability": "view",
      "type": "function"
    },
    {
      "inputs": [
        {
          "internalType": "bool",
          "name": "_state",
          "type": "bool"
        }
      ],
      "name": "pause",
      "outputs": [],
      "stateMutability": "nonpayable",
      "type": "function"
    },
    {
      "inputs": [],
      "name": "paused",
      "outputs": [
        {
          "internalType": "bool",
          "name": "",
          "type": "bool"
        }
      ],
      "stateMutability": "view",
      "type": "function"
    },
    {
      "inputs": [],
      "name": "publicSale",
      "outputs": [
        {
          "internalType": "bool",
          "name": "",
          "type": "bool"
        }
      ],
      "stateMutability": "view",
      "type": "function"
    },
    {
      "inputs": [
        {
          "internalType": "uint256",
          "name": "tokens",
          "type": "uint256"
        }
      ],
      "name": "publicSaleMint",
      "outputs": [],
      "stateMutability": "payable",
      "type": "function"
    },
    {
      "inputs": [],
      "name": "renounceOwnership",
      "outputs": [],
      "stateMutability": "nonpayable",
      "type": "function"
    },
    {
      "inputs": [
        {
          "internalType": "bool",
          "name": "_state",
          "type": "bool"
        }
      ],
      "name": "reveal",
      "outputs": [],
      "stateMutability": "nonpayable",
      "type": "function"
    },
    {
      "inputs": [],
      "name": "revealed",
      "outputs": [
        {
          "internalType": "bool",
          "name": "",
          "type": "bool"
        }
      ],
      "stateMutability": "view",
      "type": "function"
    },
    {
      "inputs": [
        {
          "internalType": "address",
          "name": "from",
          "type": "address"
        },
        {
          "internalType": "address",
          "name": "to",
          "type": "address"
        },
        {
          "internalType": "uint256",
          "name": "tokenId",
          "type": "uint256"
        }
      ],
      "name": "safeTransferFrom",
      "outputs": [],
      "stateMutability": "payable",
      "type": "function"
    },
    {
      "inputs": [
        {
          "internalType": "address",
          "name": "from",
          "type": "address"
        },
        {
          "internalType": "address",
          "name": "to",
          "type": "address"
        },
        {
          "internalType": "uint256",
          "name": "tokenId",
          "type": "uint256"
        },
        {
          "internalType": "bytes",
          "name": "_data",
          "type": "bytes"
        }
      ],
      "name": "safeTransferFrom",
      "outputs": [],
      "stateMutability": "payable",
      "type": "function"
    },
    {
      "inputs": [],
      "name": "secondCost",
      "outputs": [
        {
          "internalType": "uint256",
          "name": "",
          "type": "uint256"
        }
      ],
      "stateMutability": "view",
      "type": "function"
    },
    {
      "inputs": [
        {
          "internalType": "address",
          "name": "operator",
          "type": "address"
        },
        {
          "internalType": "bool",
          "name": "approved",
          "type": "bool"
        }
      ],
      "name": "setApprovalForAll",
      "outputs": [],
      "stateMutability": "nonpayable",
      "type": "function"
    },
    {
      "inputs": [
        {
          "internalType": "string",
          "name": "_newBaseExtension",
          "type": "string"
        }
      ],
      "name": "setBaseExtension",
      "outputs": [],
      "stateMutability": "nonpayable",
      "type": "function"
    },
    {
      "inputs": [
        {
          "internalType": "string",
          "name": "_newBaseURI",
          "type": "string"
        }
      ],
      "name": "setBaseURI",
      "outputs": [],
      "stateMutability": "nonpayable",
      "type": "function"
    },
    {
      "inputs": [
        {
          "internalType": "uint256",
          "name": "_newCost",
          "type": "uint256"
        }
      ],
      "name": "setFirstCost",
      "outputs": [],
      "stateMutability": "nonpayable",
      "type": "function"
    },
    {
      "inputs": [
        {
          "internalType": "uint256",
          "name": "_newsupply",
          "type": "uint256"
        }
      ],
      "name": "setMaxAirdropSupply",
      "outputs": [],
      "stateMutability": "nonpayable",
      "type": "function"
    },
    {
      "inputs": [
        {
          "internalType": "uint256",
          "name": "_limit",
          "type": "uint256"
        }
      ],
      "name": "setMaxPerWallet",
      "outputs": [],
      "stateMutability": "nonpayable",
      "type": "function"
    },
    {
      "inputs": [
        {
          "internalType": "uint256",
          "name": "_limit",
          "type": "uint256"
        }
      ],
      "name": "setMaxPerWalletAirdrop",
      "outputs": [],
      "stateMutability": "nonpayable",
      "type": "function"
    },
    {
      "inputs": [
        {
          "internalType": "uint256",
          "name": "_newsupply",
          "type": "uint256"
        }
      ],
      "name": "setMaxWlSupply",
      "outputs": [],
      "stateMutability": "nonpayable",
      "type": "function"
    },
    {
      "inputs": [
        {
          "internalType": "uint256",
          "name": "_limit",
          "type": "uint256"
        }
      ],
      "name": "setMaxperWalletWL",
      "outputs": [],
      "stateMutability": "nonpayable",
      "type": "function"
    },
    {
      "inputs": [
        {
          "internalType": "uint256",
          "name": "_newsupply",
          "type": "uint256"
        }
      ],
      "name": "setMaxsupply",
      "outputs": [],
      "stateMutability": "nonpayable",
      "type": "function"
    },
    {
      "inputs": [
        {
          "internalType": "bytes32",
          "name": "_merkleRoot",
          "type": "bytes32"
        }
      ],
      "name": "setMerkleRoot",
      "outputs": [],
      "stateMutability": "nonpayable",
      "type": "function"
    },
    {
      "inputs": [
        {
          "internalType": "string",
          "name": "_notRevealedURI",
          "type": "string"
        }
      ],
      "name": "setNotRevealedURI",
      "outputs": [],
      "stateMutability": "nonpayable",
      "type": "function"
    },
    {
      "inputs": [
        {
          "internalType": "uint256",
          "name": "_newCost",
          "type": "uint256"
        }
      ],
      "name": "setSecondCost",
      "outputs": [],
      "stateMutability": "nonpayable",
      "type": "function"
    },
    {
      "inputs": [
        {
          "internalType": "uint256",
          "name": "_newCost",
          "type": "uint256"
        }
      ],
      "name": "setThirdCost",
      "outputs": [],
      "stateMutability": "nonpayable",
      "type": "function"
    },
    {
      "inputs": [
        {
          "internalType": "uint256",
          "name": "_newwlCost",
          "type": "uint256"
        }
      ],
      "name": "setWlCost",
      "outputs": [],
      "stateMutability": "nonpayable",
      "type": "function"
    },
    {
      "inputs": [
        {
          "internalType": "bytes4",
          "name": "interfaceId",
          "type": "bytes4"
        }
      ],
      "name": "supportsInterface",
      "outputs": [
        {
          "internalType": "bool",
          "name": "",
          "type": "bool"
        }
      ],
      "stateMutability": "view",
      "type": "function"
    },
    {
      "inputs": [],
      "name": "symbol",
      "outputs": [
        {
          "internalType": "string",
          "name": "",
          "type": "string"
        }
      ],
      "stateMutability": "view",
      "type": "function"
    },
    {
      "inputs": [],
      "name": "thirdCost",
      "outputs": [
        {
          "internalType": "uint256",
          "name": "",
          "type": "uint256"
        }
      ],
      "stateMutability": "view",
      "type": "function"
    },
    {
      "inputs": [
        {
          "internalType": "bool",
          "name": "_state",
          "type": "bool"
        }
      ],
      "name": "togglepublicSale",
      "outputs": [],
      "stateMutability": "nonpayable",
      "type": "function"
    },
    {
      "inputs": [
        {
          "internalType": "bool",
          "name": "_state",
          "type": "bool"
        }
      ],
      "name": "togglewlMint",
      "outputs": [],
      "stateMutability": "nonpayable",
      "type": "function"
    },
    {
      "inputs": [
        {
          "internalType": "uint256",
          "name": "tokenId",
          "type": "uint256"
        }
      ],
      "name": "tokenURI",
      "outputs": [
        {
          "internalType": "string",
          "name": "",
          "type": "string"
        }
      ],
      "stateMutability": "view",
      "type": "function"
    },
    {
      "inputs": [],
      "name": "totalSupply",
      "outputs": [
        {
          "internalType": "uint256",
          "name": "",
          "type": "uint256"
        }
      ],
      "stateMutability": "view",
      "type": "function"
    },
    {
      "inputs": [
        {
          "internalType": "address",
          "name": "from",
          "type": "address"
        },
        {
          "internalType": "address",
          "name": "to",
          "type": "address"
        },
        {
          "internalType": "uint256",
          "name": "tokenId",
          "type": "uint256"
        }
      ],
      "name": "transferFrom",
      "outputs": [],
      "stateMutability": "payable",
      "type": "function"
    },
    {
      "inputs": [
        {
          "internalType": "address",
          "name": "newOwner",
          "type": "address"
        }
      ],
      "name": "transferOwnership",
      "outputs": [],
      "stateMutability": "nonpayable",
      "type": "function"
    },
    {
      "inputs": [],
      "name": "withdraw",
      "outputs": [],
      "stateMutability": "payable",
      "type": "function"
    },
    {
      "inputs": [],
      "name": "wlCost",
      "outputs": [
        {
          "internalType": "uint256",
          "name": "",
          "type": "uint256"
        }
      ],
      "stateMutability": "view",
      "type": "function"
    },
    {
      "inputs": [],
      "name": "wlMint",
      "outputs": [
        {
          "internalType": "bool",
          "name": "",
          "type": "bool"
        }
      ],
      "stateMutability": "view",
      "type": "function"
    }
  ],
  "bytecode": "0x60c06040526005608081905264173539b7b760d91b60a09081526200002891600b919062000234565b50660ffcb9e57d4000600d55661ff973cafa8000600e55663ff2e795f50000600f556608e1bc9bf0400060115561271060125560c86013556064601455600a601555600160168190556017556018805464ffffffffff1916630100010017905560006019553480156200009a57600080fd5b5060405162002d2a38038062002d2a833981016040819052620000bd91620002f0565b604080518082018252601e81527f507972616d6964204d7973746572792054656d706c65205265756e696f6e00006020808301918252835180850190945260048452632826aa2960e11b9084015281519192916200011e9160029162000234565b5080516200013490600390602084019062000234565b505060016000555062000147336200015e565b60016009556200015781620001b0565b5062000409565b600880546001600160a01b038381166001600160a01b0319831681179093556040519116919082907f8be0079c531659141344cd1fd0a4f28419497f9722a3daafe3b4186f6b6457e090600090a35050565b620001ba620001d3565b8051620001cf90600a90602084019062000234565b5050565b6008546001600160a01b03163314620002325760405162461bcd60e51b815260206004820181905260248201527f4f776e61626c653a2063616c6c6572206973206e6f7420746865206f776e6572604482015260640160405180910390fd5b565b8280546200024290620003cc565b90600052602060002090601f016020900481019282620002665760008555620002b1565b82601f106200028157805160ff1916838001178555620002b1565b82800160010185558215620002b1579182015b82811115620002b157825182559160200191906001019062000294565b50620002bf929150620002c3565b5090565b5b80821115620002bf5760008155600101620002c4565b634e487b7160e01b600052604160045260246000fd5b600060208083850312156200030457600080fd5b82516001600160401b03808211156200031c57600080fd5b818501915085601f8301126200033157600080fd5b815181811115620003465762000346620002da565b604051601f8201601f19908116603f01168101908382118183101715620003715762000371620002da565b8160405282815288868487010111156200038a57600080fd5b600093505b82841015620003ae57848401860151818501870152928501926200038f565b82841115620003c05760008684830101525b98975050505050505050565b600181811c90821680620003e157607f821691505b602082108114156200040357634e487b7160e01b600052602260045260246000fd5b50919050565b61291180620004196000396000f3fe6080604052600436106103a25760003560e01c80637cb64759116101e7578063c87b56dd1161010d578063e44e56d2116100a0578063f12f6d5d1161006f578063f12f6d5d14610a13578063f2c4ce1e14610a33578063f2fde38b14610a53578063f3257cdd14610a7357600080fd5b8063e44e56d214610974578063e5170b1614610994578063e985e9c5146109aa578063f0539802146109f357600080fd5b8063d70a28d1116100dc578063d70a28d1146108fe578063da3ef23f14610914578063dc33e68114610934578063e268e4d31461095457600080fd5b8063c87b56dd14610888578063cdd155c4146108a8578063d0ecdf48146108c8578063d5abeb01146108e857600080fd5b806395d89b4111610185578063b3ab66b011610154578063b3ab66b014610837578063b88d4fde1461084a578063bd7a19981461085d578063c66828621461087357600080fd5b806395d89b41146107cc578063a22cb465146107e1578063a61b729514610801578063aeeae3a61461082157600080fd5b8063878c7cfd116101c1578063878c7cfd146107585780638b93b0f5146107785780638da5cb5b1461078e578063940cd05b146107ac57600080fd5b80637cb64759146106f85780637f9fa4111461071857806383a076be1461073857600080fd5b80633827a5bb116102cc57806355f804b31161026a5780636c0360eb116102395780636c0360eb1461069857806370a08231146106ad578063715018a6146106cd578063720841cf146106e257600080fd5b806355f804b3146106285780635c975abb146106485780636352211e1461066257806366b4b0541461068257600080fd5b806345c490c0116102a657806345c490c0146105a95780634c66866f146105c957806351830227146105e9578063552163fd1461060857600080fd5b80633827a5bb146105785780633ccfd60b1461058e57806342842e0e1461059657600080fd5b806318160ddd1161034457806323b872dd1161031357806323b872dd146105185780632eb4a7ab1461052b578063325ff05a1461054157806333bc1c5c1461055757600080fd5b806318160ddd146104a057806320104289146104c3578063215b7cea146104e5578063226fe1c01461050557600080fd5b8063081812fc11610380578063081812fc14610420578063081c8c4414610458578063095ea7b31461046d578063149835a01461048057600080fd5b806301ffc9a7146103a757806302329a29146103dc57806306fdde03146103fe575b600080fd5b3480156103b357600080fd5b506103c76103c23660046122dd565b610a93565b60405190151581526020015b60405180910390f35b3480156103e857600080fd5b506103fc6103f736600461230f565b610ae5565b005b34801561040a57600080fd5b50610413610b00565b6040516103d39190612382565b34801561042c57600080fd5b5061044061043b366004612395565b610b92565b6040516001600160a01b0390911681526020016103d3565b34801561046457600080fd5b50610413610bd6565b6103fc61047b3660046123c5565b610c64565b34801561048c57600080fd5b506103fc61049b366004612395565b610d04565b3480156104ac57600080fd5b506104b5610d11565b6040519081526020016103d3565b3480156104cf57600080fd5b506018546103c790640100000000900460ff1681565b3480156104f157600080fd5b506103fc610500366004612395565b610d1f565b6103fc6105133660046123ef565b610d2c565b6103fc61052636600461246e565b611092565b34801561053757600080fd5b506104b560195481565b34801561054d57600080fd5b506104b5600f5481565b34801561056357600080fd5b506018546103c7906301000000900460ff1681565b34801561058457600080fd5b506104b5600e5481565b6103fc611223565b6103fc6105a436600461246e565b611295565b3480156105b557600080fd5b506103fc6105c436600461230f565b6112b0565b3480156105d557600080fd5b506103fc6105e4366004612395565b6112d4565b3480156105f557600080fd5b506018546103c790610100900460ff1681565b34801561061457600080fd5b506103fc610623366004612395565b6112e1565b34801561063457600080fd5b506103fc610643366004612536565b6112ee565b34801561065457600080fd5b506018546103c79060ff1681565b34801561066e57600080fd5b5061044061067d366004612395565b61130d565b34801561068e57600080fd5b506104b560175481565b3480156106a457600080fd5b50610413611318565b3480156106b957600080fd5b506104b56106c836600461257f565b611325565b3480156106d957600080fd5b506103fc611374565b3480156106ee57600080fd5b506104b560135481565b34801561070457600080fd5b506103fc610713366004612395565b611386565b34801561072457600080fd5b506018546103c79062010000900460ff1681565b34801561074457600080fd5b506103fc61075336600461259a565b611393565b34801561076457600080fd5b506103fc610773366004612395565b611439565b34801561078457600080fd5b506104b560145481565b34801561079a57600080fd5b506008546001600160a01b0316610440565b3480156107b857600080fd5b506103fc6107c736600461230f565b611446565b3480156107d857600080fd5b50610413611468565b3480156107ed57600080fd5b506103fc6107fc3660046125c6565b611477565b34801561080d57600080fd5b506103fc61081c36600461230f565b6114e3565b34801561082d57600080fd5b506104b560165481565b6103fc610845366004612395565b61150b565b6103fc6108583660046125f0565b6116fd565b34801561086957600080fd5b506104b560155481565b34801561087f57600080fd5b50610413611747565b34801561089457600080fd5b506104136108a3366004612395565b611754565b3480156108b457600080fd5b506103fc6108c3366004612395565b6118c4565b3480156108d457600080fd5b506103fc6108e3366004612395565b6118d1565b3480156108f457600080fd5b506104b560125481565b34801561090a57600080fd5b506104b560115481565b34801561092057600080fd5b506103fc61092f366004612536565b611ad8565b34801561094057600080fd5b506104b561094f36600461257f565b611af3565b34801561096057600080fd5b506103fc61096f366004612395565b611b1e565b34801561098057600080fd5b506103fc61098f366004612395565b611b2b565b3480156109a057600080fd5b506104b5600d5481565b3480156109b657600080fd5b506103c76109c536600461266c565b6001600160a01b03918216600090815260076020908152604080832093909416825291909152205460ff1690565b3480156109ff57600080fd5b506103fc610a0e366004612395565b611b38565b348015610a1f57600080fd5b506103fc610a2e366004612395565b611b45565b348015610a3f57600080fd5b506103fc610a4e366004612536565b611b52565b348015610a5f57600080fd5b506103fc610a6e36600461257f565b611b6d565b348015610a7f57600080fd5b506103fc610a8e36600461230f565b611be3565b60006301ffc9a760e01b6001600160e01b031983161480610ac457506380ac58cd60e01b6001600160e01b03198316145b80610adf5750635b5e139f60e01b6001600160e01b03198316145b92915050565b610aed611c09565b6018805460ff1916911515919091179055565b606060028054610b0f90612696565b80601f0160208091040260200160405190810160405280929190818152602001828054610b3b90612696565b8015610b885780601f10610b5d57610100808354040283529160200191610b88565b820191906000526020600020905b815481529060010190602001808311610b6b57829003601f168201915b5050505050905090565b6000610b9d82611c63565b610bba576040516333d1c03960e21b815260040160405180910390fd5b506000908152600660205260409020546001600160a01b031690565b600c8054610be390612696565b80601f0160208091040260200160405190810160405280929190818152602001828054610c0f90612696565b8015610c5c5780601f10610c3157610100808354040283529160200191610c5c565b820191906000526020600020905b815481529060010190602001808311610c3f57829003601f168201915b505050505081565b6000610c6f8261130d565b9050336001600160a01b03821614610ca857610c8b81336109c5565b610ca8576040516367d9dca160e11b815260040160405180910390fd5b60008281526006602052604080822080546001600160a01b0319166001600160a01b0387811691821790925591518593918516917f8c5be1e5ebec7d5bd14f71427d1e84f3dd0314c0f7b2291e5b200ac8c7c3b92591a4505050565b610d0c611c09565b601255565b600154600054036000190190565b610d27611c09565b600f55565b610d34611c98565b60185460ff1615610d8c5760405162461bcd60e51b815260206004820152601760248201527f6f6f707320636f6e74726163742069732070617573656400000000000000000060448201526064015b60405180910390fd5b60185462010000900460ff16610de45760405162461bcd60e51b815260206004820152601960248201527f776c4d696e74204861736e2774207374617274656420796574000000000000006044820152606401610d83565b610e59828280806020026020016040519081016040528093929190818152602001838360200280828437600092019190915250506019546040516bffffffffffffffffffffffff193360601b166020820152909250603401905060405160208183030381529060405280519060200120611cf2565b610ea55760405162461bcd60e51b815260206004820152601860248201527f20596f7520617265206e6f7420696e20746865205465616d00000000000000006044820152606401610d83565b6000610eaf610d11565b905060165484610ee8610ebf3390565b6001600160a01b03166000908152600560205260409081902054901c67ffffffffffffffff1690565b610ef291906126e7565b1115610f405760405162461bcd60e51b815260206004820152601b60248201527f4d6178204e4654205065722057616c6c657420657863656564656400000000006044820152606401610d83565b60008411610f605760405162461bcd60e51b8152600401610d83906126ff565b601354610f6d85836126e7565b1115610fc75760405162461bcd60e51b815260206004820152602360248201527f4d61782057686974656c69737465642d73616c6520737570706c7920726561636044820152621a195960ea1b6064820152608401610d83565b601254610fd485836126e7565b111561100f5760405162461bcd60e51b815260206004820152600a60248201526915d9481cdbdb191bdd5d60b21b6044820152606401610d83565b6016548411156110315760405162461bcd60e51b8152600401610d8390612736565b6011543410156110785760405162461bcd60e51b8152602060048201526012602482015271696e73756666696369656e742066756e647360701b6044820152606401610d83565b6110823385611d08565b5061108d6001600955565b505050565b600061109d82611d22565b9050836001600160a01b0316816001600160a01b0316146110d05760405162a1148160e81b815260040160405180910390fd5b60008281526006602052604090208054338082146001600160a01b0388169091141761111d5761110086336109c5565b61111d57604051632ce44b5f60e11b815260040160405180910390fd5b6001600160a01b03851661114457604051633a954ecd60e21b815260040160405180910390fd5b801561114f57600082555b6001600160a01b038681166000908152600560205260408082208054600019019055918716808252919020805460010190554260a01b17600160e11b17600085815260046020526040902055600160e11b83166111da57600184016000818152600460205260409020546111d85760005481146111d85760008181526004602052604090208490555b505b83856001600160a01b0316876001600160a01b03167fddf252ad1be2c89b69c2b068fc378daa952ba7f163c4a11628f55a4df523b3ef60405160405180910390a4505050505050565b61122b611c09565b611233611c98565b604051600090339047908381818185875af1925050503d8060008114611275576040519150601f19603f3d011682016040523d82523d6000602084013e61127a565b606091505b505090508061128857600080fd5b506112936001600955565b565b61108d838383604051806020016040528060008152506116fd565b6112b8611c09565b60188054911515620100000262ff000019909216919091179055565b6112dc611c09565b601455565b6112e9611c09565b600e55565b6112f6611c09565b805161130990600a90602084019061222e565b5050565b6000610adf82611d22565b600a8054610be390612696565b60006001600160a01b03821661134e576040516323d3ad8160e21b815260040160405180910390fd5b506001600160a01b031660009081526005602052604090205467ffffffffffffffff1690565b61137c611c09565b6112936000611d8b565b61138e611c09565b601955565b61139b611c09565b6113a3611c98565b600082116113c35760405162461bcd60e51b8152600401610d83906126ff565b60006113cd610d11565b6012549091506113dd84836126e7565b11156114245760405162461bcd60e51b81526020600482015260166024820152751b585e08139195081b1a5b5a5d08195e18d95959195960521b6044820152606401610d83565b61142e8284611d08565b506113096001600955565b611441611c09565b601355565b61144e611c09565b601880549115156101000261ff0019909216919091179055565b606060038054610b0f90612696565b3360008181526007602090815260408083206001600160a01b03871680855290835292819020805460ff191686151590811790915590519081529192917f17307eab39ab6107e8899845ad3d59bd9653f200f220920489ca2b5937696c31910160405180910390a35050565b6114eb611c09565b601880549115156401000000000264ff0000000019909216919091179055565b611513611c98565b60185460ff16156115615760405162461bcd60e51b81526020600482015260186024820152771bdbdc1cc84818dbdb9d1c9858dd081a5cc81c185d5cd95960421b6044820152606401610d83565b6018546301000000900460ff166115ba5760405162461bcd60e51b815260206004820152601760248201527f53616c65204861736e27742073746172746564207965740000000000000000006044820152606401610d83565b60006115c4610d11565b9050600082116115e65760405162461bcd60e51b8152600401610d83906126ff565b6015548211156116085760405162461bcd60e51b8152600401610d8390612736565b60125461161583836126e7565b11156116505760405162461bcd60e51b815260206004820152600a60248201526915d94814dbdb191bdd5d60b21b6044820152606401610d83565b611e1461165d83836126e7565b111561166e57600f54601055611693565b610fa061167b83836126e7565b111561168c57600e54601055611693565b600d546010555b816010546116a1919061276d565b3410156116e55760405162461bcd60e51b8152602060048201526012602482015271696e73756666696369656e742066756e647360701b6044820152606401610d83565b6116ef3383611d08565b506116fa6001600955565b50565b611708848484611092565b6001600160a01b0383163b156117415761172484848484611ddd565b611741576040516368d2bf6b60e11b815260040160405180910390fd5b50505050565b600b8054610be390612696565b606061175f82611c63565b6117c45760405162461bcd60e51b815260206004820152603060248201527f455243373231414d657461646174613a2055524920717565727920666f72206e60448201526f37b732bc34b9ba32b73a103a37b5b2b760811b6064820152608401610d83565b601854610100900460ff1661186557600c80546117e090612696565b80601f016020809104026020016040519081016040528092919081815260200182805461180c90612696565b80156118595780601f1061182e57610100808354040283529160200191611859565b820191906000526020600020905b81548152906001019060200180831161183c57829003601f168201915b50505050509050919050565b600061186f611ed5565b9050600081511161188f57604051806020016040528060008152506118bd565b8061189984611ee4565b600b6040516020016118ad9392919061278c565b6040516020818303038152906040525b9392505050565b6118cc611c09565b601755565b6118d9611c98565b601854640100000000900460ff166119335760405162461bcd60e51b815260206004820152601b60248201527f41697264726f702069736e277420617661696c61626c652079657400000000006044820152606401610d83565b60185460ff16156119815760405162461bcd60e51b81526020600482015260186024820152771bdbdc1cc84818dbdb9d1c9858dd081a5cc81c185d5cd95960421b6044820152606401610d83565b600061198b610d11565b90506017548261199b610ebf3390565b6119a591906126e7565b11156119f35760405162461bcd60e51b815260206004820152601b60248201527f4d6178204e4654205065722057616c6c657420657863656564656400000000006044820152606401610d83565b60008211611a135760405162461bcd60e51b8152600401610d83906126ff565b601454611a2083836126e7565b1115611a6e5760405162461bcd60e51b815260206004820152601a60248201527f6d61782041697264726f7020737570706c7920726561636865640000000000006044820152606401610d83565b601254611a7b83836126e7565b1115611ab65760405162461bcd60e51b815260206004820152600a60248201526915d9481cdbdb191bdd5d60b21b6044820152606401610d83565b6017548211156116e55760405162461bcd60e51b8152600401610d8390612736565b611ae0611c09565b805161130990600b90602084019061222e565b6001600160a01b0381166000908152600560205260408082205467ffffffffffffffff911c16610adf565b611b26611c09565b601555565b611b33611c09565b600d55565b611b40611c09565b601655565b611b4d611c09565b601155565b611b5a611c09565b805161130990600c90602084019061222e565b611b75611c09565b6001600160a01b038116611bda5760405162461bcd60e51b815260206004820152602660248201527f4f776e61626c653a206e6577206f776e657220697320746865207a65726f206160448201526564647265737360d01b6064820152608401610d83565b6116fa81611d8b565b611beb611c09565b6018805491151563010000000263ff00000019909216919091179055565b6008546001600160a01b031633146112935760405162461bcd60e51b815260206004820181905260248201527f4f776e61626c653a2063616c6c6572206973206e6f7420746865206f776e65726044820152606401610d83565b600081600111158015611c77575060005482105b8015610adf575050600090815260046020526040902054600160e01b161590565b60026009541415611ceb5760405162461bcd60e51b815260206004820152601f60248201527f5265656e7472616e637947756172643a207265656e7472616e742063616c6c006044820152606401610d83565b6002600955565b600082611cff8584611f81565b14949350505050565b611309828260405180602001604052806000815250611fc6565b60008180600111611d7257600054811015611d7257600081815260046020526040902054600160e01b8116611d70575b806118bd575060001901600081815260046020526040902054611d52565b505b604051636f96cda160e11b815260040160405180910390fd5b600880546001600160a01b038381166001600160a01b0319831681179093556040519116919082907f8be0079c531659141344cd1fd0a4f28419497f9722a3daafe3b4186f6b6457e090600090a35050565b604051630a85bd0160e11b81526000906001600160a01b0385169063150b7a0290611e12903390899088908890600401612850565b602060405180830381600087803b158015611e2c57600080fd5b505af1925050508015611e5c575060408051601f3d908101601f19168201909252611e599181019061288d565b60015b611eb7573d808015611e8a576040519150601f19603f3d011682016040523d82523d6000602084013e611e8f565b606091505b508051611eaf576040516368d2bf6b60e11b815260040160405180910390fd5b805181602001fd5b6001600160e01b031916630a85bd0160e11b1490505b949350505050565b6060600a8054610b0f90612696565b60606000611ef183612033565b600101905060008167ffffffffffffffff811115611f1157611f116124aa565b6040519080825280601f01601f191660200182016040528015611f3b576020820181803683370190505b5090508181016020015b600019016f181899199a1a9b1b9c1cb0b131b232b360811b600a86061a8153600a8504945084611f7457611f79565b611f45565b509392505050565b600081815b8451811015611f7957611fb282868381518110611fa557611fa56128aa565b602002602001015161210b565b915080611fbe816128c0565b915050611f86565b611fd08383612137565b6001600160a01b0383163b1561108d576000548281035b611ffa6000868380600101945086611ddd565b612017576040516368d2bf6b60e11b815260040160405180910390fd5b818110611fe757816000541461202c57600080fd5b5050505050565b60008072184f03e93ff9f4daa797ed6e38ed64bf6a1f0160401b83106120725772184f03e93ff9f4daa797ed6e38ed64bf6a1f0160401b830492506040015b6d04ee2d6d415b85acef8100000000831061209e576d04ee2d6d415b85acef8100000000830492506020015b662386f26fc1000083106120bc57662386f26fc10000830492506010015b6305f5e10083106120d4576305f5e100830492506008015b61271083106120e857612710830492506004015b606483106120fa576064830492506002015b600a8310610adf5760010192915050565b60008183106121275760008281526020849052604090206118bd565b5060009182526020526040902090565b600054816121585760405163b562e8dd60e01b815260040160405180910390fd5b6001600160a01b03831660008181526005602090815260408083208054680100000000000000018802019055848352600490915281206001851460e11b4260a01b178317905582840190839083907fddf252ad1be2c89b69c2b068fc378daa952ba7f163c4a11628f55a4df523b3ef8180a4600183015b81811461220757808360007fddf252ad1be2c89b69c2b068fc378daa952ba7f163c4a11628f55a4df523b3ef600080a46001016121cf565b508161222557604051622e076360e81b815260040160405180910390fd5b60005550505050565b82805461223a90612696565b90600052602060002090601f01602090048101928261225c57600085556122a2565b82601f1061227557805160ff19168380011785556122a2565b828001600101855582156122a2579182015b828111156122a2578251825591602001919060010190612287565b506122ae9291506122b2565b5090565b5b808211156122ae57600081556001016122b3565b6001600160e01b0319811681146116fa57600080fd5b6000602082840312156122ef57600080fd5b81356118bd816122c7565b8035801515811461230a57600080fd5b919050565b60006020828403121561232157600080fd5b6118bd826122fa565b60005b8381101561234557818101518382015260200161232d565b838111156117415750506000910152565b6000815180845261236e81602086016020860161232a565b601f01601f19169290920160200192915050565b6020815260006118bd6020830184612356565b6000602082840312156123a757600080fd5b5035919050565b80356001600160a01b038116811461230a57600080fd5b600080604083850312156123d857600080fd5b6123e1836123ae565b946020939093013593505050565b60008060006040848603121561240457600080fd5b83359250602084013567ffffffffffffffff8082111561242357600080fd5b818601915086601f83011261243757600080fd5b81358181111561244657600080fd5b8760208260051b850101111561245b57600080fd5b6020830194508093505050509250925092565b60008060006060848603121561248357600080fd5b61248c846123ae565b925061249a602085016123ae565b9150604084013590509250925092565b634e487b7160e01b600052604160045260246000fd5b600067ffffffffffffffff808411156124db576124db6124aa565b604051601f8501601f19908116603f01168101908282118183101715612503576125036124aa565b8160405280935085815286868601111561251c57600080fd5b858560208301376000602087830101525050509392505050565b60006020828403121561254857600080fd5b813567ffffffffffffffff81111561255f57600080fd5b8201601f8101841361257057600080fd5b611ecd848235602084016124c0565b60006020828403121561259157600080fd5b6118bd826123ae565b600080604083850312156125ad57600080fd5b823591506125bd602084016123ae565b90509250929050565b600080604083850312156125d957600080fd5b6125e2836123ae565b91506125bd602084016122fa565b6000806000806080858703121561260657600080fd5b61260f856123ae565b935061261d602086016123ae565b925060408501359150606085013567ffffffffffffffff81111561264057600080fd5b8501601f8101871361265157600080fd5b612660878235602084016124c0565b91505092959194509250565b6000806040838503121561267f57600080fd5b612688836123ae565b91506125bd602084016123ae565b600181811c908216806126aa57607f821691505b602082108114156126cb57634e487b7160e01b600052602260045260246000fd5b50919050565b634e487b7160e01b600052601160045260246000fd5b600082198211156126fa576126fa6126d1565b500190565b6020808252601b908201527f6e65656420746f206d696e74206174206c656173742031204e46540000000000604082015260600190565b6020808252601f908201527f6d6178206d696e7420616d6f756e742070657220547820657863656564656400604082015260600190565b6000816000190483118215151615612787576127876126d1565b500290565b60008451602061279f8285838a0161232a565b8551918401916127b28184848a0161232a565b8554920191600090600181811c90808316806127cf57607f831692505b8583108114156127ed57634e487b7160e01b85526022600452602485fd5b80801561280157600181146128125761283f565b60ff1985168852838801955061283f565b60008b81526020902060005b858110156128375781548a82015290840190880161281e565b505083880195505b50939b9a5050505050505050505050565b6001600160a01b038581168252841660208201526040810183905260806060820181905260009061288390830184612356565b9695505050505050565b60006020828403121561289f57600080fd5b81516118bd816122c7565b634e487b7160e01b600052603260045260246000fd5b60006000198214156128d4576128d46126d1565b506001019056fea264697066735822122091517b7a0ac27d944f0be46285d6b28a4355530a33c0bf53fbe54a28299207c664736f6c63430008090033",
  "linkReferences": {},
  "deployedLinkReferences": {}
}